{
  "contractName": "Cat",
  "abi": [
    {
      "inputs": [],
      "stateMutability": "nonpayable",
      "type": "constructor"
    },
    {
      "anonymous": false,
      "inputs": [
        {
          "indexed": true,
          "internalType": "address",
          "name": "owner",
          "type": "address"
        },
        {
          "indexed": true,
          "internalType": "address",
          "name": "spender",
          "type": "address"
        },
        {
          "indexed": false,
          "internalType": "uint256",
          "name": "value",
          "type": "uint256"
        }
      ],
      "name": "Approval",
      "type": "event"
    },
    {
      "anonymous": false,
      "inputs": [
        {
          "indexed": true,
          "internalType": "address",
          "name": "previousOwner",
          "type": "address"
        },
        {
          "indexed": true,
          "internalType": "address",
          "name": "newOwner",
          "type": "address"
        }
      ],
      "name": "OwnershipTransferred",
      "type": "event"
    },
    {
      "anonymous": false,
      "inputs": [
        {
          "indexed": true,
          "internalType": "address",
          "name": "from",
          "type": "address"
        },
        {
          "indexed": true,
          "internalType": "address",
          "name": "to",
          "type": "address"
        },
        {
          "indexed": false,
          "internalType": "uint256",
          "name": "value",
          "type": "uint256"
        }
      ],
      "name": "Transfer",
      "type": "event"
    },
    {
      "inputs": [
        {
          "internalType": "address",
          "name": "owner",
          "type": "address"
        },
        {
          "internalType": "address",
          "name": "spender",
          "type": "address"
        }
      ],
      "name": "allowance",
      "outputs": [
        {
          "internalType": "uint256",
          "name": "",
          "type": "uint256"
        }
      ],
      "stateMutability": "view",
      "type": "function",
      "constant": true
    },
    {
      "inputs": [
        {
          "internalType": "address",
          "name": "spender",
          "type": "address"
        },
        {
          "internalType": "uint256",
          "name": "amount",
          "type": "uint256"
        }
      ],
      "name": "approve",
      "outputs": [
        {
          "internalType": "bool",
          "name": "",
          "type": "bool"
        }
      ],
      "stateMutability": "nonpayable",
      "type": "function"
    },
    {
      "inputs": [
        {
          "internalType": "address",
          "name": "account",
          "type": "address"
        }
      ],
      "name": "balanceOf",
      "outputs": [
        {
          "internalType": "uint256",
          "name": "",
          "type": "uint256"
        }
      ],
      "stateMutability": "view",
      "type": "function",
      "constant": true
    },
    {
      "inputs": [],
      "name": "decimals",
      "outputs": [
        {
          "internalType": "uint8",
          "name": "",
          "type": "uint8"
        }
      ],
      "stateMutability": "view",
      "type": "function",
      "constant": true
    },
    {
      "inputs": [
        {
          "internalType": "address",
          "name": "spender",
          "type": "address"
        },
        {
          "internalType": "uint256",
          "name": "subtractedValue",
          "type": "uint256"
        }
      ],
      "name": "decreaseAllowance",
      "outputs": [
        {
          "internalType": "bool",
          "name": "",
          "type": "bool"
        }
      ],
      "stateMutability": "nonpayable",
      "type": "function"
    },
    {
      "inputs": [
        {
          "internalType": "address",
          "name": "spender",
          "type": "address"
        },
        {
          "internalType": "uint256",
          "name": "addedValue",
          "type": "uint256"
        }
      ],
      "name": "increaseAllowance",
      "outputs": [
        {
          "internalType": "bool",
          "name": "",
          "type": "bool"
        }
      ],
      "stateMutability": "nonpayable",
      "type": "function"
    },
    {
      "inputs": [],
      "name": "name",
      "outputs": [
        {
          "internalType": "string",
          "name": "",
          "type": "string"
        }
      ],
      "stateMutability": "view",
      "type": "function",
      "constant": true
    },
    {
      "inputs": [],
      "name": "owner",
      "outputs": [
        {
          "internalType": "address",
          "name": "",
          "type": "address"
        }
      ],
      "stateMutability": "view",
      "type": "function",
      "constant": true
    },
    {
      "inputs": [],
      "name": "renounceOwnership",
      "outputs": [],
      "stateMutability": "nonpayable",
      "type": "function"
    },
    {
      "inputs": [],
      "name": "rewardRate",
      "outputs": [
        {
          "internalType": "uint256",
          "name": "",
          "type": "uint256"
        }
      ],
      "stateMutability": "view",
      "type": "function",
      "constant": true
    },
    {
      "inputs": [
        {
          "internalType": "address",
          "name": "",
          "type": "address"
        }
      ],
      "name": "stakeHistory",
      "outputs": [
        {
          "internalType": "address",
          "name": "staker",
          "type": "address"
        },
        {
          "internalType": "uint256",
          "name": "amount",
          "type": "uint256"
        },
        {
          "internalType": "uint256",
          "name": "stakeTime",
          "type": "uint256"
        }
      ],
      "stateMutability": "view",
      "type": "function",
      "constant": true
    },
    {
      "inputs": [],
      "name": "symbol",
      "outputs": [
        {
          "internalType": "string",
          "name": "",
          "type": "string"
        }
      ],
      "stateMutability": "view",
      "type": "function",
      "constant": true
    },
    {
      "inputs": [],
      "name": "totalSupply",
      "outputs": [
        {
          "internalType": "uint256",
          "name": "",
          "type": "uint256"
        }
      ],
      "stateMutability": "view",
      "type": "function",
      "constant": true
    },
    {
      "inputs": [
        {
          "internalType": "address",
          "name": "to",
          "type": "address"
        },
        {
          "internalType": "uint256",
          "name": "amount",
          "type": "uint256"
        }
      ],
      "name": "transfer",
      "outputs": [
        {
          "internalType": "bool",
          "name": "",
          "type": "bool"
        }
      ],
      "stateMutability": "nonpayable",
      "type": "function"
    },
    {
      "inputs": [
        {
          "internalType": "address",
          "name": "from",
          "type": "address"
        },
        {
          "internalType": "address",
          "name": "to",
          "type": "address"
        },
        {
          "internalType": "uint256",
          "name": "amount",
          "type": "uint256"
        }
      ],
      "name": "transferFrom",
      "outputs": [
        {
          "internalType": "bool",
          "name": "",
          "type": "bool"
        }
      ],
      "stateMutability": "nonpayable",
      "type": "function"
    },
    {
      "inputs": [
        {
          "internalType": "address",
          "name": "newOwner",
          "type": "address"
        }
      ],
      "name": "transferOwnership",
      "outputs": [],
      "stateMutability": "nonpayable",
      "type": "function"
    },
    {
      "inputs": [
        {
          "internalType": "address",
          "name": "to",
          "type": "address"
        },
        {
          "internalType": "uint256",
          "name": "amount",
          "type": "uint256"
        }
      ],
      "name": "mint",
      "outputs": [],
      "stateMutability": "nonpayable",
      "type": "function"
    },
    {
      "inputs": [
        {
          "internalType": "address",
          "name": "from",
          "type": "address"
        },
        {
          "internalType": "uint256",
          "name": "amount",
          "type": "uint256"
        }
      ],
      "name": "burn",
      "outputs": [],
      "stateMutability": "nonpayable",
      "type": "function"
    },
    {
      "inputs": [
        {
          "internalType": "uint256",
          "name": "amount",
          "type": "uint256"
        }
      ],
      "name": "stake",
      "outputs": [],
      "stateMutability": "nonpayable",
      "type": "function"
    },
    {
      "inputs": [],
      "name": "unstake",
      "outputs": [],
      "stateMutability": "nonpayable",
      "type": "function"
    },
    {
      "inputs": [],
      "name": "est_reward",
      "outputs": [
        {
          "internalType": "uint256",
          "name": "",
          "type": "uint256"
        }
      ],
      "stateMutability": "view",
      "type": "function",
      "constant": true
    },
    {
      "inputs": [
        {
          "internalType": "address",
          "name": "staker",
          "type": "address"
        }
      ],
      "name": "get_stake_data",
      "outputs": [
        {
          "components": [
            {
              "internalType": "address",
              "name": "staker",
              "type": "address"
            },
            {
              "internalType": "uint256",
              "name": "amount",
              "type": "uint256"
            },
            {
              "internalType": "uint256",
              "name": "stakeTime",
              "type": "uint256"
            }
          ],
          "internalType": "struct Cat.stakeData",
          "name": "",
          "type": "tuple"
        }
      ],
      "stateMutability": "view",
      "type": "function",
      "constant": true
    }
  ],
  "bytecode": "0x60806040526108346006553480156200001757600080fd5b506040518060400160405280600381526020017f43617400000000000000000000000000000000000000000000000000000000008152506040518060400160405280600381526020017f4341540000000000000000000000000000000000000000000000000000000000815250816003908162000095919062000418565b508060049081620000a7919062000418565b505050620000ca620000be620000d060201b60201c565b620000d860201b60201c565b620004ff565b600033905090565b6000600560009054906101000a900473ffffffffffffffffffffffffffffffffffffffff16905081600560006101000a81548173ffffffffffffffffffffffffffffffffffffffff021916908373ffffffffffffffffffffffffffffffffffffffff1602179055508173ffffffffffffffffffffffffffffffffffffffff168173ffffffffffffffffffffffffffffffffffffffff167f8be0079c531659141344cd1fd0a4f28419497f9722a3daafe3b4186f6b6457e060405160405180910390a35050565b600081519050919050565b7f4e487b7100000000000000000000000000000000000000000000000000000000600052604160045260246000fd5b7f4e487b7100000000000000000000000000000000000000000000000000000000600052602260045260246000fd5b600060028204905060018216806200022057607f821691505b602082108103620002365762000235620001d8565b5b50919050565b60008190508160005260206000209050919050565b60006020601f8301049050919050565b600082821b905092915050565b600060088302620002a07fffffffffffffffffffffffffffffffffffffffffffffffffffffffffffffffff8262000261565b620002ac868362000261565b95508019841693508086168417925050509392505050565b6000819050919050565b6000819050919050565b6000620002f9620002f3620002ed84620002c4565b620002ce565b620002c4565b9050919050565b6000819050919050565b6200031583620002d8565b6200032d620003248262000300565b8484546200026e565b825550505050565b600090565b6200034462000335565b620003518184846200030a565b505050565b5b8181101562000379576200036d6000826200033a565b60018101905062000357565b5050565b601f821115620003c85762000392816200023c565b6200039d8462000251565b81016020851015620003ad578190505b620003c5620003bc8562000251565b83018262000356565b50505b505050565b600082821c905092915050565b6000620003ed60001984600802620003cd565b1980831691505092915050565b6000620004088383620003da565b9150826002028217905092915050565b62000423826200019e565b67ffffffffffffffff8111156200043f576200043e620001a9565b5b6200044b825462000207565b620004588282856200037d565b600060209050601f8311600181146200049057600084156200047b578287015190505b620004878582620003fa565b865550620004f7565b601f198416620004a0866200023c565b60005b82811015620004ca57848901518255600182019150602085019450602081019050620004a3565b86831015620004ea5784890151620004e6601f891682620003da565b8355505b6001600288020188555050505b505050505050565b61260c806200050f6000396000f3fe608060405234801561001057600080fd5b50600436106101425760003560e01c80637b0a47ee116100b8578063a694fc3a1161007c578063a694fc3a14610355578063a9059cbb14610371578063d8d3d0ae146103a1578063dd62ed3e146103d1578063f2fde38b14610401578063f9cd53491461041d57610142565b80637b0a47ee146102af5780638da5cb5b146102cd57806395d89b41146102eb5780639dc29fac14610309578063a457c2d71461032557610142565b8063313ce5671161010a578063313ce567146101ed57806336ba9c7d1461020b578063395093511461022957806340c10f191461025957806370a0823114610275578063715018a6146102a557610142565b806306fdde0314610147578063095ea7b31461016557806318160ddd1461019557806323b872dd146101b35780632def6620146101e3575b600080fd5b61014f61044f565b60405161015c9190611938565b60405180910390f35b61017f600480360381019061017a91906119f3565b6104e1565b60405161018c9190611a4e565b60405180910390f35b61019d610504565b6040516101aa9190611a78565b60405180910390f35b6101cd60048036038101906101c89190611a93565b61050e565b6040516101da9190611a4e565b60405180910390f35b6101eb61053d565b005b6101f56107a2565b6040516102029190611b02565b60405180910390f35b6102136107ab565b6040516102209190611a78565b60405180910390f35b610243600480360381019061023e91906119f3565b6108c1565b6040516102509190611a4e565b60405180910390f35b610273600480360381019061026e91906119f3565b6108f8565b005b61028f600480360381019061028a9190611b1d565b610924565b60405161029c9190611a78565b60405180910390f35b6102ad61096c565b005b6102b7610980565b6040516102c49190611a78565b60405180910390f35b6102d5610986565b6040516102e29190611b59565b60405180910390f35b6102f36109b0565b6040516103009190611938565b60405180910390f35b610323600480360381019061031e91906119f3565b610a42565b005b61033f600480360381019061033a91906119f3565b610a6e565b60405161034c9190611a4e565b60405180910390f35b61036f600480360381019061036a9190611b74565b610ae5565b005b61038b600480360381019061038691906119f3565b610cf3565b6040516103989190611a4e565b60405180910390f35b6103bb60048036038101906103b69190611b1d565b610d16565b6040516103c89190611c01565b60405180910390f35b6103eb60048036038101906103e69190611c1c565b610dd9565b6040516103f89190611a78565b60405180910390f35b61041b60048036038101906104169190611b1d565b610e60565b005b61043760048036038101906104329190611b1d565b610ee3565b60405161044693929190611c5c565b60405180910390f35b60606003805461045e90611cc2565b80601f016020809104026020016040519081016040528092919081815260200182805461048a90611cc2565b80156104d75780601f106104ac576101008083540402835291602001916104d7565b820191906000526020600020905b8154815290600101906020018083116104ba57829003601f168201915b5050505050905090565b6000806104ec610f2d565b90506104f9818585610f35565b600191505092915050565b6000600254905090565b600080610519610f2d565b90506105268582856110fe565b61053185858561118a565b60019150509392505050565b600073ffffffffffffffffffffffffffffffffffffffff16600760003373ffffffffffffffffffffffffffffffffffffffff1673ffffffffffffffffffffffffffffffffffffffff16815260200190815260200160002060000160009054906101000a900473ffffffffffffffffffffffffffffffffffffffff1673ffffffffffffffffffffffffffffffffffffffff160361060e576040517f08c379a000000000000000000000000000000000000000000000000000000000815260040161060590611d3f565b60405180910390fd5b6000600760003373ffffffffffffffffffffffffffffffffffffffff1673ffffffffffffffffffffffffffffffffffffffff1681526020019081526020016000206040518060600160405290816000820160009054906101000a900473ffffffffffffffffffffffffffffffffffffffff1673ffffffffffffffffffffffffffffffffffffffff1673ffffffffffffffffffffffffffffffffffffffff1681526020016001820154815260200160028201548152505090506106d53033836020015161118a565b600060065482602001518360400151426106ef9190611d8e565b6106f99190611dc2565b6107039190611dc2565b9050670de0b6b3a7640000816107199190611e33565b90506107253382611400565b600760003373ffffffffffffffffffffffffffffffffffffffff1673ffffffffffffffffffffffffffffffffffffffff168152602001908152602001600020600080820160006101000a81549073ffffffffffffffffffffffffffffffffffffffff02191690556001820160009055600282016000905550505050565b60006012905090565b600080600760003373ffffffffffffffffffffffffffffffffffffffff1673ffffffffffffffffffffffffffffffffffffffff1681526020019081526020016000206040518060600160405290816000820160009054906101000a900473ffffffffffffffffffffffffffffffffffffffff1673ffffffffffffffffffffffffffffffffffffffff1673ffffffffffffffffffffffffffffffffffffffff1681526020016001820154815260200160028201548152505090506000600654826020015183604001514261087e9190611d8e565b6108889190611dc2565b6108929190611dc2565b9050670de0b6b3a7640000816108a89190611e33565b90508160400151426108ba9190611d8e565b9250505090565b6000806108cc610f2d565b90506108ed8185856108de8589610dd9565b6108e89190611e64565b610f35565b600191505092915050565b610900611556565b670de0b6b3a7640000816109149190611dc2565b90506109208282611400565b5050565b60008060008373ffffffffffffffffffffffffffffffffffffffff1673ffffffffffffffffffffffffffffffffffffffff168152602001908152602001600020549050919050565b610974611556565b61097e60006115d4565b565b60065481565b6000600560009054906101000a900473ffffffffffffffffffffffffffffffffffffffff16905090565b6060600480546109bf90611cc2565b80601f01602080910402602001604051908101604052809291908181526020018280546109eb90611cc2565b8015610a385780601f10610a0d57610100808354040283529160200191610a38565b820191906000526020600020905b815481529060010190602001808311610a1b57829003601f168201915b5050505050905090565b610a4a611556565b670de0b6b3a764000081610a5e9190611dc2565b9050610a6a828261169a565b5050565b600080610a79610f2d565b90506000610a878286610dd9565b905083811015610acc576040517f08c379a0000000000000000000000000000000000000000000000000000000008152600401610ac390611f0a565b60405180910390fd5b610ad98286868403610f35565b60019250505092915050565b80610aef33610924565b1015610b30576040517f08c379a0000000000000000000000000000000000000000000000000000000008152600401610b2790611f76565b60405180910390fd5b600073ffffffffffffffffffffffffffffffffffffffff16600760003373ffffffffffffffffffffffffffffffffffffffff1673ffffffffffffffffffffffffffffffffffffffff16815260200190815260200160002060000160009054906101000a900473ffffffffffffffffffffffffffffffffffffffff1673ffffffffffffffffffffffffffffffffffffffff1614610c01576040517f08c379a0000000000000000000000000000000000000000000000000000000008152600401610bf890611fe2565b60405180910390fd5b670de0b6b3a764000081610c159190611dc2565b9050610c2233308361118a565b60405180606001604052803373ffffffffffffffffffffffffffffffffffffffff16815260200182815260200142815250600760003373ffffffffffffffffffffffffffffffffffffffff1673ffffffffffffffffffffffffffffffffffffffff16815260200190815260200160002060008201518160000160006101000a81548173ffffffffffffffffffffffffffffffffffffffff021916908373ffffffffffffffffffffffffffffffffffffffff160217905550602082015181600101556040820151816002015590505050565b600080610cfe610f2d565b9050610d0b81858561118a565b600191505092915050565b610d1e611871565b600760008373ffffffffffffffffffffffffffffffffffffffff1673ffffffffffffffffffffffffffffffffffffffff1681526020019081526020016000206040518060600160405290816000820160009054906101000a900473ffffffffffffffffffffffffffffffffffffffff1673ffffffffffffffffffffffffffffffffffffffff1673ffffffffffffffffffffffffffffffffffffffff168152602001600182015481526020016002820154815250509050919050565b6000600160008473ffffffffffffffffffffffffffffffffffffffff1673ffffffffffffffffffffffffffffffffffffffff16815260200190815260200160002060008373ffffffffffffffffffffffffffffffffffffffff1673ffffffffffffffffffffffffffffffffffffffff16815260200190815260200160002054905092915050565b610e68611556565b600073ffffffffffffffffffffffffffffffffffffffff168173ffffffffffffffffffffffffffffffffffffffff1603610ed7576040517f08c379a0000000000000000000000000000000000000000000000000000000008152600401610ece90612074565b60405180910390fd5b610ee0816115d4565b50565b60076020528060005260406000206000915090508060000160009054906101000a900473ffffffffffffffffffffffffffffffffffffffff16908060010154908060020154905083565b600033905090565b600073ffffffffffffffffffffffffffffffffffffffff168373ffffffffffffffffffffffffffffffffffffffff1603610fa4576040517f08c379a0000000000000000000000000000000000000000000000000000000008152600401610f9b90612106565b60405180910390fd5b600073ffffffffffffffffffffffffffffffffffffffff168273ffffffffffffffffffffffffffffffffffffffff1603611013576040517f08c379a000000000000000000000000000000000000000000000000000000000815260040161100a90612198565b60405180910390fd5b80600160008573ffffffffffffffffffffffffffffffffffffffff1673ffffffffffffffffffffffffffffffffffffffff16815260200190815260200160002060008473ffffffffffffffffffffffffffffffffffffffff1673ffffffffffffffffffffffffffffffffffffffff168152602001908152602001600020819055508173ffffffffffffffffffffffffffffffffffffffff168373ffffffffffffffffffffffffffffffffffffffff167f8c5be1e5ebec7d5bd14f71427d1e84f3dd0314c0f7b2291e5b200ac8c7c3b925836040516110f19190611a78565b60405180910390a3505050565b600061110a8484610dd9565b90507fffffffffffffffffffffffffffffffffffffffffffffffffffffffffffffffff81146111845781811015611176576040517f08c379a000000000000000000000000000000000000000000000000000000000815260040161116d90612204565b60405180910390fd5b6111838484848403610f35565b5b50505050565b600073ffffffffffffffffffffffffffffffffffffffff168373ffffffffffffffffffffffffffffffffffffffff16036111f9576040517f08c379a00000000000000000000000000000000000000000000000000000000081526004016111f090612296565b60405180910390fd5b600073ffffffffffffffffffffffffffffffffffffffff168273ffffffffffffffffffffffffffffffffffffffff1603611268576040517f08c379a000000000000000000000000000000000000000000000000000000000815260040161125f90612328565b60405180910390fd5b611273838383611867565b60008060008573ffffffffffffffffffffffffffffffffffffffff1673ffffffffffffffffffffffffffffffffffffffff168152602001908152602001600020549050818110156112f9576040517f08c379a00000000000000000000000000000000000000000000000000000000081526004016112f0906123ba565b60405180910390fd5b8181036000808673ffffffffffffffffffffffffffffffffffffffff1673ffffffffffffffffffffffffffffffffffffffff16815260200190815260200160002081905550816000808573ffffffffffffffffffffffffffffffffffffffff1673ffffffffffffffffffffffffffffffffffffffff168152602001908152602001600020600082825401925050819055508273ffffffffffffffffffffffffffffffffffffffff168473ffffffffffffffffffffffffffffffffffffffff167fddf252ad1be2c89b69c2b068fc378daa952ba7f163c4a11628f55a4df523b3ef846040516113e79190611a78565b60405180910390a36113fa84848461186c565b50505050565b600073ffffffffffffffffffffffffffffffffffffffff168273ffffffffffffffffffffffffffffffffffffffff160361146f576040517f08c379a000000000000000000000000000000000000000000000000000000000815260040161146690612426565b60405180910390fd5b61147b60008383611867565b806002600082825461148d9190611e64565b92505081905550806000808473ffffffffffffffffffffffffffffffffffffffff1673ffffffffffffffffffffffffffffffffffffffff168152602001908152602001600020600082825401925050819055508173ffffffffffffffffffffffffffffffffffffffff16600073ffffffffffffffffffffffffffffffffffffffff167fddf252ad1be2c89b69c2b068fc378daa952ba7f163c4a11628f55a4df523b3ef8360405161153e9190611a78565b60405180910390a36115526000838361186c565b5050565b61155e610f2d565b73ffffffffffffffffffffffffffffffffffffffff1661157c610986565b73ffffffffffffffffffffffffffffffffffffffff16146115d2576040517f08c379a00000000000000000000000000000000000000000000000000000000081526004016115c990612492565b60405180910390fd5b565b6000600560009054906101000a900473ffffffffffffffffffffffffffffffffffffffff16905081600560006101000a81548173ffffffffffffffffffffffffffffffffffffffff021916908373ffffffffffffffffffffffffffffffffffffffff1602179055508173ffffffffffffffffffffffffffffffffffffffff168173ffffffffffffffffffffffffffffffffffffffff167f8be0079c531659141344cd1fd0a4f28419497f9722a3daafe3b4186f6b6457e060405160405180910390a35050565b600073ffffffffffffffffffffffffffffffffffffffff168273ffffffffffffffffffffffffffffffffffffffff1603611709576040517f08c379a000000000000000000000000000000000000000000000000000000000815260040161170090612524565b60405180910390fd5b61171582600083611867565b60008060008473ffffffffffffffffffffffffffffffffffffffff1673ffffffffffffffffffffffffffffffffffffffff1681526020019081526020016000205490508181101561179b576040517f08c379a0000000000000000000000000000000000000000000000000000000008152600401611792906125b6565b60405180910390fd5b8181036000808573ffffffffffffffffffffffffffffffffffffffff1673ffffffffffffffffffffffffffffffffffffffff1681526020019081526020016000208190555081600260008282540392505081905550600073ffffffffffffffffffffffffffffffffffffffff168373ffffffffffffffffffffffffffffffffffffffff167fddf252ad1be2c89b69c2b068fc378daa952ba7f163c4a11628f55a4df523b3ef8460405161184e9190611a78565b60405180910390a36118628360008461186c565b505050565b505050565b505050565b6040518060600160405280600073ffffffffffffffffffffffffffffffffffffffff16815260200160008152602001600081525090565b600081519050919050565b600082825260208201905092915050565b60005b838110156118e25780820151818401526020810190506118c7565b60008484015250505050565b6000601f19601f8301169050919050565b600061190a826118a8565b61191481856118b3565b93506119248185602086016118c4565b61192d816118ee565b840191505092915050565b6000602082019050818103600083015261195281846118ff565b905092915050565b600080fd5b600073ffffffffffffffffffffffffffffffffffffffff82169050919050565b600061198a8261195f565b9050919050565b61199a8161197f565b81146119a557600080fd5b50565b6000813590506119b781611991565b92915050565b6000819050919050565b6119d0816119bd565b81146119db57600080fd5b50565b6000813590506119ed816119c7565b92915050565b60008060408385031215611a0a57611a0961195a565b5b6000611a18858286016119a8565b9250506020611a29858286016119de565b9150509250929050565b60008115159050919050565b611a4881611a33565b82525050565b6000602082019050611a636000830184611a3f565b92915050565b611a72816119bd565b82525050565b6000602082019050611a8d6000830184611a69565b92915050565b600080600060608486031215611aac57611aab61195a565b5b6000611aba868287016119a8565b9350506020611acb868287016119a8565b9250506040611adc868287016119de565b9150509250925092565b600060ff82169050919050565b611afc81611ae6565b82525050565b6000602082019050611b176000830184611af3565b92915050565b600060208284031215611b3357611b3261195a565b5b6000611b41848285016119a8565b91505092915050565b611b538161197f565b82525050565b6000602082019050611b6e6000830184611b4a565b92915050565b600060208284031215611b8a57611b8961195a565b5b6000611b98848285016119de565b91505092915050565b611baa8161197f565b82525050565b611bb9816119bd565b82525050565b606082016000820151611bd56000850182611ba1565b506020820151611be86020850182611bb0565b506040820151611bfb6040850182611bb0565b50505050565b6000606082019050611c166000830184611bbf565b92915050565b60008060408385031215611c3357611c3261195a565b5b6000611c41858286016119a8565b9250506020611c52858286016119a8565b9150509250929050565b6000606082019050611c716000830186611b4a565b611c7e6020830185611a69565b611c8b6040830184611a69565b949350505050565b7f4e487b7100000000000000000000000000000000000000000000000000000000600052602260045260246000fd5b60006002820490506001821680611cda57607f821691505b602082108103611ced57611cec611c93565b5b50919050565b7f4e6f74207374616b656400000000000000000000000000000000000000000000600082015250565b6000611d29600a836118b3565b9150611d3482611cf3565b602082019050919050565b60006020820190508181036000830152611d5881611d1c565b9050919050565b7f4e487b7100000000000000000000000000000000000000000000000000000000600052601160045260246000fd5b6000611d99826119bd565b9150611da4836119bd565b9250828203905081811115611dbc57611dbb611d5f565b5b92915050565b6000611dcd826119bd565b9150611dd8836119bd565b9250828202611de6816119bd565b91508282048414831517611dfd57611dfc611d5f565b5b5092915050565b7f4e487b7100000000000000000000000000000000000000000000000000000000600052601260045260246000fd5b6000611e3e826119bd565b9150611e49836119bd565b925082611e5957611e58611e04565b5b828204905092915050565b6000611e6f826119bd565b9150611e7a836119bd565b9250828201905080821115611e9257611e91611d5f565b5b92915050565b7f45524332303a2064656372656173656420616c6c6f77616e63652062656c6f7760008201527f207a65726f000000000000000000000000000000000000000000000000000000602082015250565b6000611ef46025836118b3565b9150611eff82611e98565b604082019050919050565b60006020820190508181036000830152611f2381611ee7565b9050919050565b7f4e6f7420656e6f7567682062616c616e63650000000000000000000000000000600082015250565b6000611f606012836118b3565b9150611f6b82611f2a565b602082019050919050565b60006020820190508181036000830152611f8f81611f53565b9050919050565b7f416c7265616479207374616b6564000000000000000000000000000000000000600082015250565b6000611fcc600e836118b3565b9150611fd782611f96565b602082019050919050565b60006020820190508181036000830152611ffb81611fbf565b9050919050565b7f4f776e61626c653a206e6577206f776e657220697320746865207a65726f206160008201527f6464726573730000000000000000000000000000000000000000000000000000602082015250565b600061205e6026836118b3565b915061206982612002565b604082019050919050565b6000602082019050818103600083015261208d81612051565b9050919050565b7f45524332303a20617070726f76652066726f6d20746865207a65726f2061646460008201527f7265737300000000000000000000000000000000000000000000000000000000602082015250565b60006120f06024836118b3565b91506120fb82612094565b604082019050919050565b6000602082019050818103600083015261211f816120e3565b9050919050565b7f45524332303a20617070726f766520746f20746865207a65726f20616464726560008201527f7373000000000000000000000000000000000000000000000000000000000000602082015250565b60006121826022836118b3565b915061218d82612126565b604082019050919050565b600060208201905081810360008301526121b181612175565b9050919050565b7f45524332303a20696e73756666696369656e7420616c6c6f77616e6365000000600082015250565b60006121ee601d836118b3565b91506121f9826121b8565b602082019050919050565b6000602082019050818103600083015261221d816121e1565b9050919050565b7f45524332303a207472616e736665722066726f6d20746865207a65726f20616460008201527f6472657373000000000000000000000000000000000000000000000000000000602082015250565b60006122806025836118b3565b915061228b82612224565b604082019050919050565b600060208201905081810360008301526122af81612273565b9050919050565b7f45524332303a207472616e7366657220746f20746865207a65726f206164647260008201527f6573730000000000000000000000000000000000000000000000000000000000602082015250565b60006123126023836118b3565b915061231d826122b6565b604082019050919050565b6000602082019050818103600083015261234181612305565b9050919050565b7f45524332303a207472616e7366657220616d6f756e742065786365656473206260008201527f616c616e63650000000000000000000000000000000000000000000000000000602082015250565b60006123a46026836118b3565b91506123af82612348565b604082019050919050565b600060208201905081810360008301526123d381612397565b9050919050565b7f45524332303a206d696e7420746f20746865207a65726f206164647265737300600082015250565b6000612410601f836118b3565b915061241b826123da565b602082019050919050565b6000602082019050818103600083015261243f81612403565b9050919050565b7f4f776e61626c653a2063616c6c6572206973206e6f7420746865206f776e6572600082015250565b600061247c6020836118b3565b915061248782612446565b602082019050919050565b600060208201905081810360008301526124ab8161246f565b9050919050565b7f45524332303a206275726e2066726f6d20746865207a65726f2061646472657360008201527f7300000000000000000000000000000000000000000000000000000000000000602082015250565b600061250e6021836118b3565b9150612519826124b2565b604082019050919050565b6000602082019050818103600083015261253d81612501565b9050919050565b7f45524332303a206275726e20616d6f756e7420657863656564732062616c616e60008201527f6365000000000000000000000000000000000000000000000000000000000000602082015250565b60006125a06022836118b3565b91506125ab82612544565b604082019050919050565b600060208201905081810360008301526125cf81612593565b905091905056fea2646970667358221220ab42b185cefdc8b1cc0a856086539fbdbbbfd6e45be1e38e3d9b9b8afd30e40064736f6c63430008130033",
  "immutableReferences": {},
  "source": "// SPDX-License-Identifier: MIT\npragma solidity ^0.8.4;\nimport \"@openzeppelin/contracts/token/ERC20/ERC20.sol\";\nimport \"@openzeppelin/contracts/access/Ownable.sol\";\n\ncontract Cat is ERC20, Ownable {\n    constructor() ERC20(\"Cat\", \"CAT\") {\n    }\n\n    struct stakeData {\n        address staker;\n        uint256 amount;\n        uint256 stakeTime;\n    }\n\n    uint256 public rewardRate = 2100;\n\n    mapping(address => stakeData) public stakeHistory;\n\n    function mint(address to, uint256 amount) public onlyOwner {\n        // convert amount ot wei\n        amount = amount * 10 ** 18;\n        _mint(to, amount);\n    }\n\n    function burn(address from, uint256 amount) public onlyOwner {\n        // convert amount ot wei\n        amount = amount * 10 ** 18;\n        _burn(from, amount);\n    }\n\n    function stake(uint256 amount) public {\n        // check if user has enough balance\n        if (balanceOf(msg.sender) < amount) {\n            revert(\"Not enough balance\");\n        }\n\n        if (stakeHistory[msg.sender].staker != address(0)) {\n            revert(\"Already staked\");\n        }\n        // convert amount ot wei\n        amount = amount * 10 ** 18;\n        // _burn(msg.sender, amount);\n        // send amount to contract\n        _transfer(msg.sender, address(this), amount);\n        stakeHistory[msg.sender] = stakeData(msg.sender, amount, block.timestamp);\n    }\n\n    function unstake() public {\n        if (stakeHistory[msg.sender].staker == address(0)) {\n            revert(\"Not staked\");\n        }\n\n        stakeData memory data = stakeHistory[msg.sender];\n        _transfer(address(this), msg.sender, data.amount);\n        uint256 reward = (block.timestamp - data.stakeTime) * data.amount * rewardRate;\n        reward = reward / 1000000000000000000;\n        _mint(msg.sender, reward);\n        delete stakeHistory[msg.sender];\n    }\n\n    function est_reward() public view returns (uint256) {\n        stakeData memory data = stakeHistory[msg.sender];\n        uint256 reward = (block.timestamp - data.stakeTime) * data.amount * rewardRate;\n        reward = reward / 1000000000000000000;\n        return (block.timestamp - data.stakeTime);\n    }\n\n    function get_stake_data (address staker) public view returns (stakeData memory) {\n        return stakeHistory[staker];\n    }\n}",
  "sourcePath": "/home/dev/Documents/Local_projects/redsoft/truffle/contracts/Cat.sol",
  "compiler": {
    "name": "solc",
    "version": "0.8.19+commit.7dd6d404.Emscripten.clang"
  },
  "schemaVersion": "3.4.13",
  "updatedAt": "2023-05-27T18:50:59.370Z",
  "networkType": "ethereum",
  "devdoc": {
    "events": {
      "Approval(address,address,uint256)": {
        "details": "Emitted when the allowance of a `spender` for an `owner` is set by a call to {approve}. `value` is the new allowance."
      },
      "Transfer(address,address,uint256)": {
        "details": "Emitted when `value` tokens are moved from one account (`from`) to another (`to`). Note that `value` may be zero."
      }
    },
    "kind": "dev",
    "methods": {
      "allowance(address,address)": {
        "details": "See {IERC20-allowance}."
      },
      "approve(address,uint256)": {
        "details": "See {IERC20-approve}. NOTE: If `amount` is the maximum `uint256`, the allowance is not updated on `transferFrom`. This is semantically equivalent to an infinite approval. Requirements: - `spender` cannot be the zero address."
      },
      "balanceOf(address)": {
        "details": "See {IERC20-balanceOf}."
      },
      "decimals()": {
        "details": "Returns the number of decimals used to get its user representation. For example, if `decimals` equals `2`, a balance of `505` tokens should be displayed to a user as `5.05` (`505 / 10 ** 2`). Tokens usually opt for a value of 18, imitating the relationship between Ether and Wei. This is the default value returned by this function, unless it's overridden. NOTE: This information is only used for _display_ purposes: it in no way affects any of the arithmetic of the contract, including {IERC20-balanceOf} and {IERC20-transfer}."
      },
      "decreaseAllowance(address,uint256)": {
        "details": "Atomically decreases the allowance granted to `spender` by the caller. This is an alternative to {approve} that can be used as a mitigation for problems described in {IERC20-approve}. Emits an {Approval} event indicating the updated allowance. Requirements: - `spender` cannot be the zero address. - `spender` must have allowance for the caller of at least `subtractedValue`."
      },
      "increaseAllowance(address,uint256)": {
        "details": "Atomically increases the allowance granted to `spender` by the caller. This is an alternative to {approve} that can be used as a mitigation for problems described in {IERC20-approve}. Emits an {Approval} event indicating the updated allowance. Requirements: - `spender` cannot be the zero address."
      },
      "name()": {
        "details": "Returns the name of the token."
      },
      "owner()": {
        "details": "Returns the address of the current owner."
      },
      "renounceOwnership()": {
        "details": "Leaves the contract without owner. It will not be possible to call `onlyOwner` functions. Can only be called by the current owner. NOTE: Renouncing ownership will leave the contract without an owner, thereby disabling any functionality that is only available to the owner."
      },
      "symbol()": {
        "details": "Returns the symbol of the token, usually a shorter version of the name."
      },
      "totalSupply()": {
        "details": "See {IERC20-totalSupply}."
      },
      "transfer(address,uint256)": {
        "details": "See {IERC20-transfer}. Requirements: - `to` cannot be the zero address. - the caller must have a balance of at least `amount`."
      },
      "transferFrom(address,address,uint256)": {
        "details": "See {IERC20-transferFrom}. Emits an {Approval} event indicating the updated allowance. This is not required by the EIP. See the note at the beginning of {ERC20}. NOTE: Does not update the allowance if the current allowance is the maximum `uint256`. Requirements: - `from` and `to` cannot be the zero address. - `from` must have a balance of at least `amount`. - the caller must have allowance for ``from``'s tokens of at least `amount`."
      },
      "transferOwnership(address)": {
        "details": "Transfers ownership of the contract to a new account (`newOwner`). Can only be called by the current owner."
      }
    },
    "version": 1
  },
  "userdoc": {
    "kind": "user",
    "methods": {},
    "version": 1
  }
}